:020000040800F2
:1000000050040020B11200088D1200088F12000861
:1000100091120008931200089512000800000000D9
:10002000000000000000000000000000971200081F
:1000300099120008000000009B1200089D120008A1
:10004000D5120008D9120008DD120008E1120008DC
:10005000E5120008E9120008ED120008F11200088C
:10006000F5120008F9120008FD120008011300083B
:1000700005130008091300080D13000811130008E8
:1000800015130008191300081D1300082113000898
:1000900025130008291300082D1300083113000848
:1000A00035130008391300083D13000841130008F8
:1000B00045130008491300084D13000851130008A8
:1000C00055130008591300085D1300086113000858
:1000D00065130008691300086D1300087113000808
:1000E00075130008791300087D13000881130008B8
:1000F00085130008891300088D1300089113000868
:1001000095130008991300089D130008A113000817
:10011000A5130008A9130008AD130008B1130008C7
:10012000B5130008B9130008BD130008C113000877
:10013000C51300080000000000000000C9130008FB
:10014000CD130008D1130008D5130008D9130008F7
:10015000DD130008E1130008E5130008E9130008A7
:10016000ED130008F1130008F5130008F913000857
:10017000FD1300080114000800000000000000004A
:1001800005140008091400082DE9F843040016D0EE
:100190002078DFF8F462C10713D5B06800F00C00D6
:1001A000042807D0B06800F00C0008283DD1706822
:1001B00041023AD53068810303D56068002800F019
:1001C0005E812078B14F810719D5B06810F00C0F0F
:1001D00007D0B06800F00C0008285BD170684102BD
:1001E00058D43068810703D5E068012840F0478182
:1001F0003168206921F0F80141EAC00131602178BD
:10020000080779D56069A249002868D001220A60F0
:1002100000F042F90546706F81076DD400F03CF99B
:10022000401B0228F7D903202CE16068B0F5803F1D
:1002300004D1306840F48030306011E0B0F5A02F78
:10024000306806D140F480203060316841F480315C
:1002500005E020F480303060316821F48021316085
:10026000606858B100F018F9054630688103A8D4D9
:1002700000F012F9401B6528F7D3D4E700F00CF921
:100280000546306881039CD500F006F9401B6528BF
:10029000F7D3C8E7E068A8B10121396000F0FCF8A5
:1002A00005463068810705D400F0F6F8401B0228A7
:1002B000F7D9B8E73068216920F0F80040EAC100BA
:1002C00030609CE7386000F0E7F805463168880741
:1002D00095D500F0E1F8401B0228F7D9A3E70860A4
:1002E00000F0DAF80546706F810705D500F0D4F804
:1002F000401B0228F7D996E7207841075FD5306C7C
:100300000025C1000AD400950125316C41F08051CF
:100310003164306C00F0805000900098DFF87481F8
:10032000D8F80000C10513D4D8F8000040F480705C
:10033000C8F8000000F0B0F88146D8F80000C10508
:1003400006D400F0A9F8A0EB09000228F5D96AE765
:10035000A068012805D00528306F06D140F00400C0
:100360003067306F40F0010005E040084000306722
:10037000306F20F00400306741F28938A06860B126
:1003800000F08AF88146306F810713D400F084F8BA
:10039000A0EB09004045F6D345E700F07DF8814623
:1003A000306F810706D500F077F8A0EB09004045D3
:1003B000F6D338E71DB1306C20F080503064A0696E
:1003C00000285ED0B16801F00C0108293AD002285B
:1003D0002AD10020386600F05FF8054630688101B8
:1003E00005D500F059F8401B0228F7D91BE7E06952
:1003F000216A626A0843A16A490840EA8210491EDC
:1004000040EA0140E16A40EA01607060012038661C
:1004100000F042F804463068810132D400F03CF824
:10042000001B0228F7D9FEE60020386600F034F8F9
:1004300004463068810124D500F02EF8001B022804
:10044000F7D9F0E601281AD07068E26900F480015B
:10045000914202BF00F03F01226A91420FD147F65C
:10046000C071626A0140914202BF00F44031A26A49
:10047000914202BF00F07060E16A884201D0012021
:1004800000E00020BDE8F28300380240000047424F
:10049000800E47420070004001484068704700BF2E
:1004A000000000203C2000BF00BF00BF00BF00BF15
:1004B00000BF00BF00BF00BF00BF00BF00BF00BF44
:1004C00000BF00BF00BF00BF00BF00BF00BF00BF34
:1004D00000BF00BF00BF00BF00BF00BF00BF00BF24
:1004E00000BF00BF00BF00BF00BF00BF00BF00BF14
:1004F00000BF00BF00BF00BF00BF00BF00BF00BF04
:1005000000BF00BF00BF00BF00BF00BF00BF00BFF3
:1005100000BF00BF00BF00BF00BF00BF00BF00BFE3
:1005200000BF00BF00BF00BF00BF00BF00BF00BFD3
:1005300000BF00BF00BF00BF00BF00BF00BF00BFC3
:1005400000BF00BF00BF00BF00BF00BF00BF00BFB3
:1005500000BF00BF00BF00BF00BF00BF00BF00BFA3
:1005600000BF00BF00BF00BF00BF00BF00BF00BF93
:1005700000BF00BF00BF00BF00BF00BF00BF00BF83
:1005800000BF00BF00BF00BF00BF00BF00BF00BF73
:1005900000BF00BF00BF00BF00BF00BF00BF00BF63
:1005A00000BF00BF00BF00BF00BF00BF00BF00BF53
:1005B00000BF00BF00BF00BF00BF00BF00BF00BF43
:1005C00000BF00BF00BF00BF00BF00BF00BF00BF33
:1005D00000BF00BF00BF00BF00BF00BF00BF00BF23
:1005E00000BF00BF00BF00BF401E00287FF45BAF0C
:1005F000704781B0002343F6E4620093504301E06A
:100600000098401E009000980028F9D101B0704772
:1006100038B586B00020304C304D0090072221685C
:1006200041F0020121600123206800F002000090E7
:10063000284600990192002103910491029301A997
:1006400000F096F80022072100F059F800200090F1
:10065000216841F002012160F021206800F00200D1
:10066000009000981E48019101A900F081F807B0A0
:1006700030BD70B50446194D0022032108E070B565
:100680000446164D0122022100F039F80022012112
:1006900000F035F800F031F8114E00F023F800F0CA
:1006A00026F80120FFF7FEFE002200F027F80120C7
:1006B000FFF7F8FE00F021F800F014F8240100F034
:1006C00016F80120FFF7EEFE002200F017F8BDE853
:1006D000704002208DE700003038024000040240E4
:1006E000000802400022F021304600F018B9012233
:1006F00004F0F001304600F012B90122042128462E
:1007000000F00DB980B5FFF783FF2820FFF7B1FF98
:100710000120FFF7AEFF6420FFF76BFF0620FFF715
:10072000A8FF0C20FFF7A5FF0220FFF7A2FFBDE8FE
:10073000024080209DE7012905D007D3032904D07A
:1007400038BF143002E0403000E0543040F0800008
:10075000C0B28EE770B504000D4608D0002603E055
:10076000205CFFF78CFF761CF0B2A842F8D370BD76
:100770002DE9F84F0D4600266B496C4A0F230446BD
:1007800001202F68B04000EA0708804540F0C18092
:100790004FEA460C032707FA0CF76FEA070E6F685B
:1007A000012F18BF022F03D0112F18BF122F12D103
:1007B000A768D5F80C900EEA070709FA0CF949EA80
:1007C0000707A760676827EA00006F68C7F300178C
:1007D000B74038436060E068AF680EEA000007FA8F
:1007E0000CF73843E060B0006F68022F18BF122F7B
:1007F00012D1F70804EB870700F01C09D7F820A0F6
:1008000003FA09FB2AEA0B0AD5F810B00BFA09F92A
:1008100049EA0A09C7F8209027680EEA070E2F79DF
:1008200007F0030707FA0CF747EA0E0727606F681F
:10083000FF006ED5002700974FEA960C176847F423
:100840008047176000F00C00176807F48047009796
:1008500003FA00FE009F364F57F82C7027EA0E0E61
:10086000344FBC4208BF002722D0334FBC4208BFE0
:1008700001271DD0314FBC4208BF022718D0304F8E
:10088000BC4208BF032713D02E4FBC4208BF042729
:100890000ED02D4FBC4208BF052709D02B4FBC42BC
:1008A00008BF062704D02A4FBC420CBF07270827E1
:1008B00007FA00F01E4F40EA0E0047F82C006FEADE
:1008C00008000F6800EA070C6F68FF0348BF48EA9A
:1008D0000C0CC1F800C04F6800EA070C6F68BF033A
:1008E00048BF48EA0C0CC1F804C08F6800EA070C46
:1008F0006F68FF0248BF48EA0C0CC1F808C0CF6817
:1009000000EA070C6868800248BF48EA0C0CC1F88E
:100910000CC0761C0F2E7FF633AFBDE8F18F02B905
:100920000904816170470000003C014044380240E6
:100930000838014000000240000402400008024064
:10094000000C024000100240001402400018024057
:10095000001C02402DE9F04104000F4654D0494EDE
:10096000306800F00F00B84202D200F073F84BD1AB
:100970002068454D810712D5400703D5A96841F489
:10098000E051A9602078010703D5A86840F46040D1
:10099000A860A968A06821F0F0010143A96021784E
:1009A000C80729D56068012802D129688A0305E0B3
:1009B000022818BF032803D129688A0103D423E041
:1009C00029688A0720D5A968890840EA8100A860BB
:1009D000FFF762FD8046A868616800F00C00B0EB8C
:1009E000810F09D0FFF758FDA0EB080041F28931D3
:1009F0008842F0D303202BE0306800F00F008742DC
:100A000004D200F027F801D0012021E0207841072E
:100A100005D5AA68E06822F4E0520243AA60217872
:100A2000080706D5A968206921F4604141EAC001A0
:100A3000A96000F035F8AA681449154BC2F30312F7
:100A4000895CC84018601348006800F059F800201D
:100A5000BDE8F0813770316801F00F01B94270478D
:100A60000B480D4A006813680C49C3F3822206E064
:100A70000748094A006813680849C3F34232895C91
:100A8000C8407047003C024000380240D8110008BE
:100A90000C0000200800002008380240CC1200089A
:100AA00030B5144C606800F00C00042802D008280F
:100AB00002D01DE0104830BD2268206800234102AA
:100AC00002F03F0204D525680B49C5F3881003E006
:100AD00020680A49C0F38810A1FB000100F030F83B
:100AE0002168C1F30141491C4900B0FBF1F030BD60
:100AF000024830BD0438024000127A000024F4009D
:100B000038B50D4D0D4B2A7804464FF47A711868AC
:100B1000B1FBF2F2B0FBF2F000F0CDF850B9102CBE
:100B200008D2002221464FF0FF3000F0A7F8AC6059
:100B3000002032BD012032BD000000200C0000204A
:100B4000D3BBD9B1B2F5803F5BD2022A1ED98C4605
:100B5000B1FBF2F102FB11C31B0443EA1043B3FBE8
:100B6000F2FC02FB1C3380B240EA0343B3FBF2F019
:100B700002FB103240EA0C4000237047022A05D9DC
:100B80008446B0FBF2F002FB10C270474AB105D1B7
:100B900000F0010249085FEA30007047002200239C
:100BA000704700F0A7B80B0002000021002070473A
:100BB000F7D3002200237047904271EB030CF2D36D
:100BC00070B5B1FA81F4B3FA83F52C1BA340C4F1DC
:100BD000200532FA05F63343A2405FF00046E640B6
:100BE00002E05B085FEA3202841A71EB030524BF5E
:100BF000204629467641F4D302000B003000002144
:100C000070BD70B5B1FA81F4B2FA82F5C4F1200476
:100C10006419B4F12006DAD3B2405FF00044F44026
:100C2000002502E052085FEA3303C61A71EB020E98
:100C300024BF3046714664416D41F3D302000B007E
:100C40002000290070BD00000901020002D42448E0
:100C500081547047234B02F00F021A4402F8041C1F
:100C60007047214B19684FF6FF020002114000F453
:100C7000E06008431D4908431860704770B51A4B7F
:100C80001C68C4F302230124C3F10705052D2EBF00
:100C90000F2504FA05F56D1E1E1D072E34BF002317
:100CA000DB1E2940994004FA03F3BDE870405B1E47
:100CB0001A401143C8E710B5401EB0F1807F01D340
:100CC000012010BD0A4C60600F214FF0FF30FFF78C
:100CD000BBFF0021A16007202060002010BD0000A4
:100CE00000E400E018ED00E00CED00E00000FA0583
:100CF00010E000E07047000038B5040001D1012089
:100D000032BD00F021F808B900F022F800F012F826
:100D100000F023F8FFE7416100F001F832BD2068E0
:100D2000C16841F40051C1600020686020216970F1
:100D3000A9707047242068702068C16821F40051B0
:100D4000C160204600F013B804F138056878704798
:100D500000212970204600F094B82068016921F430
:100D6000904101612068416921F02A017047D0B5A6
:100D70000646642732681169F06821F44051014346
:100D800011611924D3682D48B168034030690B43C1
:100D900071690343F0690B430343D3605169B06940
:100DA00021F4407101435161F36925482549B3F5A8
:100DB000004F1FD18A4218BF824202D1FFF758FE6E
:100DC00001E0FFF74DFE0246A4FB02017268D30F5B
:100DD0005200FFF7B5FE00F037F8FF00323764200D
:100DE000B7FBF0F0420002F4F87202EB011200F0DF
:100DF00007001DE08A4218BF824202D1FFF738FE89
:100E000001E0FFF72DFE0246A4FB02017268930F7A
:100E10009200FFF795FE00F017F83F01323764208B
:100E2000B7FBF0F000F0F00202EB011200F00F004F
:100E3000316880188860D0BD00000000F369FFFFB2
:100E400000140140001001406421B0FBF1F107FBE8
:100E50001107704780B52448244901604FF4E132FE
:100E600000230C2142608360C360036141618361A0
:100E7000C361FFF741FF18B1BDE8014000F0AAB817
:100E800001BD10B586B004461422002101A800F06F
:100E9000ABF821681548814224D100221448009201
:100EA000416941F010014161416901F01001009177
:100EB000009900924FF4C061036843F0010303609E
:100EC0000222006800F0010000900098094801919A
:100ED000029200210391032207210591049201A9A6
:100EE000FFF746FC06B010BD1000002000100140C6
:100EF000303802400000024080B500F07FF800F07A
:100F000019F800F095F8FFF7A5FFFFF7FBFB0021AC
:100F10000020FFF710FC4820FFF7B1FB6920FFF726
:100F2000AEFB01210020FFF706FC0D212AA0FFF7F0
:100F300011FCFEE780B592B03022002106A800F037
:100F400053F81422002101A800F04EF80020009070
:100F50004FF480331D48016841F080510160002149
:100F6000006800F0805000900098194800910268D5
:100F700042F4804202600122006800F48040009048
:100F800006A80099069202214FF480020C910D925E
:100F90000421A8220E910F9202210422079310919E
:100FA0001192FFF7F1F802210291002203920F2023
:100FB0004FF4A051019004914FF480520592052105
:100FC00001A8FFF7C7FC13B000BD00004038024085
:100FD0000070004070470000636F727465784D20A8
:100FE0004C4344212100000010B5044610460A4637
:100FF0000146204600F076F8204610BD80B50B482B
:10100000016841F400710160026842F4806202608C
:10101000016841F4807101600320FFF722FE002087
:10102000FFF76EFD00F092F8002002BD003C024088
:1010300038B586B01422002101A8FFF7D5FF0021A2
:101040002148224D224C0091026842F08002026049
:101050000022016801F0800100910099009203686C
:1010600043F004030360016801F00401009100995A
:101070000092036843F002030360016801F002017B
:10108000009100990092F021036843F0010303608E
:10109000006800F00100009000982846FFF73FFC30
:1010A000002207212046FFF73AFCF02100F012F859
:1010B0002846FFF75DFB072100F00CF82046FFF7FC
:1010C00057FB07B030BD0000303802400008024036
:1010D0000004024001910122002103910491029237
:1010E00001A9704762F30F2262F31F42401810F00B
:1010F000030308D0C91A1FD3DB0748BF00F8012D2E
:1011000028BF20F8022D130030B4144615461039BC
:1011100028BF20E93C00FAD8490728BF20E90C0085
:1011200048BF40F8042D890028BF20F8022D48BF91
:1011300000F8012D30BC7047C91818BF00F8012D08
:10114000CB0728BF00F8012D7047000081B00020B8
:10115000009000220A48416841F4804141604168A2
:1011600001F48041009100990092036843F080539C
:101170000360006800F080500090009801B0704754
:101180004038024030B5016884684218416802EB7B
:101190005103C90703D54C4401E0491C05D19A42CB
:1011A0000AD012F9011B12F8015B002904F8015B57
:1011B000F3D4491EF7D5F2E70C3030BD0448054A98
:1011C000016841F4700101604FF0006010607047E9
:1011D00088ED00E008ED00E00000000000000000E5
:1011E000010203040607080910B5074979441831BC
:1011F000064C7C44163404E00A68081D11448847F4
:101200000146A142F8D110BD2C00000038000000BA
:101210004EF68851CEF20001086840F47000086074
:10122000BFF34F8FBFF36F8F4FF00070E1EE100AE6
:101230007047000051FFFFFFD40100001A000000BA
:101240000000002000F00DF8002801D0FFF7CCFFCF
:10125000AFF300800020AFF30080FFF74DFE00F0F9
:1012600002F80120704700F001B800000746384638
:1012700000F002F8FBE7000080B5AFF30080024AFF
:1012800011001820ABBEFBE7260002007047FEE706
:10129000FEE7FEE7FEE770477047704700F000B8D2
:1012A0000248416802788A184260704700000020B6
:1012B0000148804701480047BD110008C1120008DD
:1012C000AFF30080FFF7A4FFFFF7BCFF00000000B2
:1012D00001020304FFF7FEBFFFF7FEBFFFF7FEBFEB
:1012E000FFF7FEBFFFF7FEBFFFF7FEBFFFF7FEBF32
:1012F000FFF7FEBFFFF7FEBFFFF7FEBFFFF7FEBF22
:10130000FFF7FEBFFFF7FEBFFFF7FEBFFFF7FEBF11
:10131000FFF7FEBFFFF7FEBFFFF7FEBFFFF7FEBF01
:10132000FFF7FEBFFFF7FEBFFFF7FEBFFFF7FEBFF1
:10133000FFF7FEBFFFF7FEBFFFF7FEBFFFF7FEBFE1
:10134000FFF7FEBFFFF7FEBFFFF7FEBFFFF7FEBFD1
:10135000FFF7FEBFFFF7FEBFFFF7FEBFFFF7FEBFC1
:10136000FFF7FEBFFFF7FEBFFFF7FEBFFFF7FEBFB1
:10137000FFF7FEBFFFF7FEBFFFF7FEBFFFF7FEBFA1
:10138000FFF7FEBFFFF7FEBFFFF7FEBFFFF7FEBF91
:10139000FFF7FEBFFFF7FEBFFFF7FEBFFFF7FEBF81
:1013A000FFF7FEBFFFF7FEBFFFF7FEBFFFF7FEBF71
:1013B000FFF7FEBFFFF7FEBFFFF7FEBFFFF7FEBF61
:1013C000FFF7FEBFFFF7FEBFFFF7FEBFFFF7FEBF51
:1013D000FFF7FEBFFFF7FEBFFFF7FEBFFFF7FEBF41
:1013E000FFF7FEBFFFF7FEBFFFF7FEBFFFF7FEBF31
:1013F000FFF7FEBFFFF7FEBFFFF7FEBFFFF7FEBF21
:10140000FFF7FEBFFFF7FEBFFFF7FEBF0001F900C9
:091410000010FC000124F4BF00EF
:04000005080012C11C
:00000001FF
